:020000040800F2
:10000000781F00209D090008A1070008A307000829
:10001000A7070008AB070008AF07000800000000B2
:10002000000000000000000000000000B30700080E
:10003000B507000800000000B7070008B90700086E
:10004000B7090008B7090008B7090008DD780008FB
:10005000B7090008B7090008B7090008B709000880
:10006000B7090008B7090008B7090008B709000870
:10007000B7090008B7090008B7090008B709000860
:10008000B7090008B7090008B7090008B709000850
:10009000B7090008B7090008B7090008B709000840
:1000A000B7090008B7090008B7090008B709000830
:1000B000B70900085357000875560008B70900082B
:1000C000B7090008B7090008B7090008B709000810
:1000D000B7090008FB2D0008B7090008B709000898
:1000E000B7090008B7090008B7090008B7090008F0
:1000F000B7090008B7090008B7090008B7090008E0
:10010000B7090008B70900084D870008B7090008BB
:10011000B709000841580008B7090008B7090008E6
:10012000B7090008B7090008B7090008B7090008AF
:1001300000F002F800F090F80AA090E8000C824469
:100140008344AAF10107DA4501D100F085F8AFF246
:10015000090EBAE80F0013F0010F18BFFB1A43F0A5
:1001600001031847C4F20000E4F20000103A24BF73
:1001700078C878C1FAD8520724BF30C830C144BF0C
:1001800004680C607047000000230024002500264E
:10019000103A28BF78C1FBD8520728BF30C148BFEA
:1001A0000B6070476E290CF0DD8170290CF04783DD
:1001B00066290DF03B8665290DF0388667290DF01C
:1001C00035866129AFF3008003681B0A28BF41F020
:1001D000800169290CF08A8164290CF087817529D6
:1001E0000CF084816F290CF0D58278290CF01383F0
:1001F000E9290CF06F82E4290CF06C82F5290CF0EF
:100200006982EF290CF0D282F8290CF0128303687E
:10021000DB0928BF41F0800163290CF0DE817329DE
:100220000CF0E381E3290CF0CA85F3290CF0CF85AB
:10023000002070471FB50CF01FFE040000200021B5
:100240000DF002FB401C6060002000210DF0E6FA7A
:10025000E0601FBD10B510BD0CF0E1FD1146FFF7C9
:10026000E9FF00F009F80CF0B9FE03B4FFF7F2FF64
:1002700003BC02F067FD000088B00025FF2402F0F7
:10028000F7FC4FF4E13002F06CFD4FF4614005F0F3
:1002900006FB41F61F41632005F02EFA06F0CCFE66
:1002A00007F0BDFA07F081FC08F0F8F905F0A4F8B2
:1002B00008F09EF808F080F805F023F94FF4FA7082
:1002C00002F013FD06F01CFE5BE2FA48007810B95C
:1002D00009F075F919E2F748007801281DD10AF0F4
:1002E000B7F8F44800780328F4D10020F2490870E8
:1002F000F24981F84C01F24981F86600F148006842
:10030000F14908600120F14908706420F049086053
:100310004FF4967002F0E9FC33E2E64800780228D8
:1003200077D10020EB490870EB48007840B904F021
:100330005CFE04F032FD04F00FFE0120E649087077
:10034000012008F0BDFC07F0D1FFE4490870084621
:10035000007828B9E248007810B90320D549087020
:10036000E048007828B908F0B1FA0646012108F003
:10037000DEFA1021DC4800F0D2FF18B9DB48007823
:10038000012859D1CE480078002855D1D8480078A6
:10039000012810D101231A460521184608F080F8DB
:1003A0004FF47A7002F0A1FC0320C24908700020CB
:1003B000C949087040E0CE48007858BB0020CB49BE
:1003C0000870CC4908700870012006F018F9022066
:1003D00005F0B5FFC4B244B9BA480068C649086020
:1003E0000120B74981F8660025E0092C13D1B448F3
:1003F00090F86700401CB24981F8670001231A4653
:100400000321022008F04CF84FF47A7002F06DFCE2
:1004100011E03CE010E0262C01D02A2D06D103206B
:10042000A44908700020AC49087004E02F2C02D0C9
:100430000320A04908702F24A948007809F049FD3D
:10044000A0480068A0490968401AB0F57A7F09D928
:1004500003209849087000209F4908704FF47A7073
:100460009B4908609348007803280FD100209749E2
:100470000870A0490870904908709C49087091481C
:100480000068914908600120924908703DE189485F
:10049000007803285CD101208E490870042009F0FF
:1004A000E9FE8D48007890B904F09FFD0121934842
:1004B0008088924ECDE90001B379F2793178707875
:1004C00004F065FA04F048FD012083490870012119
:1004D0008A488088894ECDE90001B379F279317874
:1004E000707804F054FA04F037FD06F0EEFD06468D
:1004F00006F019FE06F05FFE05467A48007828B936
:1005000008F0E4F90646002108F011FA302D0EDD5E
:100510007748007818B176480078012807D1022082
:1005200064490870002500206B490870EDE0302D0B
:10053000ACDD6F4800780228A8D101231A460221B9
:10054000072007F0ADFF4FF47A7002F0CEFBDCE03D
:100550005848007804287DD15F480078A8B904F095
:1005600044FD03F0FBFC04F0F7FC01205A4908703D
:1005700001231A460621032007F092FF4FF49660EC
:1005800002F0B3FB00204C490870002008F098FBF3
:100590001021554800F0C3FE01283BD1022005F090
:1005A000CEFEC4B234B95648007818B9012041498A
:1005B00008702BE0092C04D0ACB951480078012810
:1005C00011D13F4890F86900401C3D4981F869000D
:1005D00001231A460421032007F062FF40F2DC5099
:1005E00002F083FB12E0182102A80BF01AFF002092
:1005F0004049087003202F49087001231A4604213E
:1006000007F04EFF40F2DC5002F06FFB2D4800680F
:10061000394908602B48006837490968401AB0F525
:10062000FA6F0CD9182102A80BF0FBFE002031490B
:10063000087003201F4908700020274908701D48D2
:100640000078012861D12A48007820F0010028496B
:10065000087000E003E0012008F0F0F955E01548CB
:100660000078052810D101231A460221072007F03F
:1006700017FF4FF47A7002F038FB03200D49087021
:1006800001202049087040E00A48007806283BD144
:1006900001231A460521184607F002FF4FF47A702D
:1006A00002F023FB0320034908700120154908705C
:1006B0002BE000000000002000010020010D0020C0
:1006C000920C0020280000203000002005000020AF
:1006D0003400002018000020150000201200002027
:1006E000040000201B000020001001400700002033
:1006F00011000020100000202C0000202209002002
:10070000010000201700002000BF1E4890F867007D
:100710001D4991F84D1108441C4991F821130844D2
:100720001B4909780844042810DD1A48007800F0B5
:10073000010058B91748007840F0010015490870C9
:100740000020154908700620144908700E4890F8DA
:100750004F010C4991F869100844042810DD0D4838
:100760000078C0F3400058B90A48007840F0020011
:1007700008490870002008490870052007490870DA
:1007800000BFA2E5920C0020010D002068090020A6
:10079000190000201100002015000020000000209A
:1007A000704700BFFEE700BFFEE700BFFEE700BFE7
:1007B000FEE7704770477047704700000CB5002097
:1007C000019000906C48006840F480306A490860ED
:1007D00000BF6948006800F4003000900198401C98
:1007E0000190009818B90198B0F5A06FF1D1624856
:1007F000006800F4003010B10120009001E00020FA
:1008000000900098012843D15C48006840F0100037
:100810005A4908600846006820F00300086008464E
:10082000006840F002000860534840685249486040
:100830000846406848600846406840F48060486068
:100840000846406820F47C1048600846406840F440
:10085000E81048600846006840F08070086000BFFB
:100860004548006800F000700028F9D04248406810
:1008700020F00300404948600846406840F002000C
:10088000486000BF3C48406800F00C000828F9D1DF
:100890000CBD10B5FFF792FF10BD10B536480068CB
:1008A00040F0010034490860084640683449084077
:1008B0003149486008460068324908402E490860BE
:1008C0000846006820F4802008600846406820F44C
:1008D000FE0048604FF41F008860FFF7DAFF4FF01A
:1008E00000602949086010BD10B5002100200022D9
:1008F000214B5B6803F00C0121B1042906D00829C3
:1009000028D107E0214B224C236027E01F4B204CCD
:10091000236023E0184B5B6803F47010164B5B6890
:1009200003F48032022303EB904022B9194B434376
:10093000174C23600DE0104B5B6803F4003323B1C8
:10094000144B4343124C236003E0104B4343104CC1
:10095000236003E00D4B0E4C236000BF00BF064B2D
:100960005B68C3F303130C4CE15C094B1B68CB4081
:10097000074C236010BD0000001002400020024020
:100980000000FFF8FFFFF6FE08ED00E000127A001D
:100990003800002000093D003C0000200948804745
:1009A00009480047FEE7FEE7FEE7FEE7FEE7FEE751
:1009B000FEE7FEE7FEE7FEE704480549054A064B69
:1009C000704700009B0800083101000878190020DA
:1009D000781F0020781B0020781B0020314901433C
:1009E000314A1160704770B5002100230F22C4788E
:1009F00004B32D4C246804F4E064C4F5E064210AD7
:100A0000C1F10403CA40447804FA03F18478144025
:100A100021430901254C0678A155047804F01F05EF
:100A20000124AC4005786D11AD0005F1E025C5F855
:100A3000004109E0047804F01F050124AC401C4D7E
:100A40000678761145F8264070BD1A4A0A400243DE
:100A5000154B1B1F1A60704739B1134A121D1268DB
:100A60000243114B1B1D1A6006E00F4A121D12684B
:100A700082430D4B1B1D1A607047042808D14FF0AC
:100A8000E021096941F004014FF0E022116107E023
:100A90004FF0E021096921F004014FF0E0221161DB
:100AA000704700000000FA050CED00E000E400E0F3
:100AB00080E100E080FFFF1F10B5012000F0F2FE92
:100AC000002000F0EFFE10BD2A4908607047294958
:100AD000091F086070472749843108607047014644
:100AE0000020254A10884FF67F4210400843224AD2
:100AF00010807047014600201F4A10884FF6807210
:100B0000104008431C4A1080704708B5002200922C
:100B1000194A2C3A0092009A02440092009A1160FD
:100B200008BD08B501460020009013482C380090FD
:100B30000098084400900098008808BD0D489C303B
:100B40000068C0B270470C480830008840F00100CF
:100B500009490831088070470648A0300068C0B2D3
:100B6000704705480830008840F00200024908310B
:100B70000880704704860D422C6C0040014600201E
:100B8000FE4A106800F03800084310607047FB49C7
:100B9000096821F00801F94A11601146096801430A
:100BA00011607047F549096821F01001F34A11609E
:100BB00011460968014311607047F148EF494860E8
:100BC000F04848607047EE48EC494860ED4848609E
:100BD0007047EA48006940F08000E84908617047C2
:100BE000E648006940F08000E4490861704704204D
:100BF000E249C96801F0010109B101200EE0DF49B5
:100C0000C96801F0040109B1022007E0DB49C968A5
:100C100001F0100109B1032000E00420704700B585
:100C200002460423FFF7E3FF034603E0FFF7DFFF7D
:100C30000346521E012B01D1002AF7D102B9052328
:100C4000184600BD30B5044604254FF43020FFF7A8
:100C5000E6FF0546042D17D1C848006940F00200A0
:100C6000C649086108464461006940F040000861D7
:100C70004FF43020FFF7D3FF0546C048006941F626
:100C8000FD710840BD490861284630BD10B50424F7
:100C90004FF43020FFF7C3FF0446042C16D1B748A9
:100CA000006940F00400B54908610846006940F059
:100CB000400008614FF43020FFF7B1FF0446AF4811
:100CC000006941F6FB710840AC490861204610BD3F
:100CD00000B502460423FFF78AFF034603E0FFF74F
:100CE00086FF0346521E012B01D1002AF7D102B91B
:100CF0000523184600BD10B504244FF43020FFF73B
:100D0000E7FF0446042C16D19C48006940F004001B
:100D10009A4908610846006940F0400008614FF4B4
:100D20003020FFF7D5FF04469448006941F6FB7177
:100D3000084092490861204610BD00208F49C969CA
:100D400001F0020109B1012000E00020704730B538
:100D5000A5250424FFF7F1FF00B100254FF4302052
:100D6000FFF75DFF0446042C3AD18548834988602B
:100D7000844888600846006940F020000861084601
:100D8000006940F0400008614FF43020FFF747FF52
:100D90000446042C1BD17948006941F6DF710840F4
:100DA000764908610846006940F0100008617648FD
:100DB0000580E002FFF733FF0446052C10D06F4892
:100DC000006941F6EF7108406C49086108E0052CA4
:100DD00006D06A48006941F6EF710840674908612A
:100DE000204630BD78B506460C460425002000900C
:100DF000E802FFF714FF0546042D24D15F4800697F
:100E000040F001005D4908613480E802FFF707FF08
:100E10000546042D10D1B01C0090200C00990880CC
:100E2000E802FFF7FCFE05465448006941F6FE71F2
:100E300008405249086106E05048006941F6FE71D9
:100E400008404E490861284678BD70B504460D46F5
:100E50000426F002FFF7E3FE0646042E11D14748B0
:100E6000006940F00100454908612580F002FFF764
:100E7000D6FE06464148006941F6FE7108403F49EA
:100E80000861304670BD70B505460E460424E00288
:100E9000FFF7C5FE0446042C17D13948374988604E
:100EA000384888600846006940F0100008612E80CC
:100EB000E002FFF7B4FE0446052C06D02F48006977
:100EC00041F6EF7108402D490861204670BD2DE9BB
:100ED000F04304464FF6FF763746B046B146042548
:100EE000E443E6B2C4F30727C4F307484FEA1469A2
:100EF000E802FFF794FE0546042D49D120481F491A
:100F00008860204888600846006940F01000086149
:100F1000FF2E06D01C4808300680E802FFF77FFE4F
:100F20000546042D08D1FF2F06D017480A30078048
:100F3000E802FFF774FE0546042D0AD1B8F1FF0F51
:100F400007D011480C30A0F80080E802FFF767FED8
:100F50000546042D0AD1B9F1FF0F07D00A480E301B
:100F6000A0F80090E802FFF75AFE0546052D0FD0C5
:100F70000248006941F6EF71084007E00020024096
:100F800023016745AB89EFCD00F8FF1F6649086173
:100F90002846BDE8F08330B5054604244FF43020E0
:100FA000FFF73DFE0446042C41D160485E4988604D
:100FB0005F4888600846006940F0200008610846E4
:100FC000006940F0400008614FF43020FFF727FE31
:100FD0000446042C22D15448006941F6DF710840D0
:100FE000514908610846006940F0100008611DB1D0
:100FF00000205049088002E0A5204E4908804FF4A7
:101000003020FFF70CFE0446052C10D0464800693E
:1010100041F6EF7108404449086108E0052C06D00C
:101020004148006941F6DF7108403F4908612046A8
:1010300030BDF0B505460E46174604243B483A49F4
:1010400088603B488860E002FFF7E9FD0446042C15
:1010500019D13548006940F010003349086147F064
:10106000F800304328433349891C0880E002FFF729
:10107000D6FD0446052C06D02B48006941F6EF71D9
:101080000840294908612046F0BD2748C06980080A
:1010900070472548006A704700202349096801F01D
:1010A000200109B1012000E00020704729B11E4A4B
:1010B000126902431C4B1A6104E01B4A1269824305
:1010C000194B1A61704701460020012908D1164AC0
:1010D000D26902F001020AB1012008E0002006E016
:1010E000114AD2680A400AB1012000E0002070478E
:1010F0000D49C860704704200B49C96801F001011F
:1011000009B101200EE00849C96801F0040109B1E4
:10111000022007E00449C96801F0100109B1032069
:1011200000E00420704700000020024023016745D2
:10113000AB89EFCD00F8FF1F10B50446CC488442C0
:1011400008D10121042000F093FB0021042000F0CD
:101150008FFB46E0C748844208D10121082000F0F7
:1011600087FB0021082000F083FB3AE0C24884425C
:1011700008D10121102000F07BFB0021102000F09D
:1011800077FB2EE0BD48844208D10121202000F0E9
:101190006FFB0021202000F06BFB22E0B848844266
:1011A00008D10121402000F063FB0021402000F025
:1011B0005FFB16E0B348844208D10121802000F093
:1011C00057FB0021802000F053FB0AE0AE48844228
:1011D00007D10121801500F04BFB0021A01500F084
:1011E00047FB10BD10B50121084600F041FB00216E
:1011F000012000F03DFB10BD2DE9F0410246002525
:101200000026002000230024002791F803C00CF0E2
:101210000F0591F803C00CF0100CBCF1000F03D0C7
:1012200091F802C04CEA050591F800C0BCF1000F2E
:1012300031D0146800202BE04FF0010C0CFA00F3C1
:10124000B1F800C00CEA03069E4220D183004FF0A3
:101250000F0C0CFA03F7BC4305FA03FC4CEA040438
:1012600091F803C0BCF1280F06D14FF0010C0CFA25
:1012700000FCC2F814C00AE091F803C0BCF1480FAA
:1012800005D14FF0010C0CFA00FCC2F810C0401C54
:101290000828D1D31460B1F800C0BCF1FF0F34DDD1
:1012A000546800202EE000F1080C4FF0010808FA05
:1012B0000CF3B1F800C00CEA03069E4221D1830072
:1012C0004FF00F0C0CFA03F7BC4305FA03FC4CEA91
:1012D000040491F803C0BCF1280F05D100F1080CFB
:1012E00008FA0CF8C2F8148091F803C0BCF1480F5A
:1012F00007D100F1080C4FF0010808FA0CF8C2F809
:101300001080401C0828CED35460BDE8F0814FF611
:10131000FF710180022181700421C1707047024673
:10132000002093680B400BB1012000E000207047C3
:101330000146886880B2704702460020D3680B409F
:101340000BB1012000E0002070470146C86880B260
:10135000704701617047416170470AB1016100E067
:1013600041617047C16070474FF480320A43826127
:101370008161826182698269704702460020434B25
:1013800018684FF68073184040EA021008433F4B3C
:10139000186070473E49C8617047F0B50A4600239F
:1013A00000240021002500F00046B6F1004F02D1D4
:1013B000364EF16901E0354E7168C0F3034583B2E2
:1013C00000F44016B6F5401F08D121F070612F4E91
:1013D000766826F070662D4F7E6012E000F480166D
:1013E000B6F5801F06D1032606FA05F4A14341F0A5
:1013F000706106E0460D360103FA06F6B14341F08E
:10140000706122B1460D360103FA06F6314300F051
:101410000046B6F1004F02D11C4EF16101E01B4EB7
:101420007160F0BD30B500228B071C0F0F2303FA4B
:1014300004F2164B08338C1053F824309343134CAA
:1014400008348D1044F8253023468C1053F824308E
:101450008C07240F00FA04F423430C4C08348D103D
:1014600044F8253030BD0A49DC310860704700007F
:1014700000080140000C0140001001400014014030
:1014800000180140001C0140002001400000014004
:101490000000204210B50121080700F0F6F90021F4
:1014A0004FF0805000F0F1F910BD2A4908627047F2
:1014B00028490861704701460020274A106820F03B
:1014C000E0000843106070472249A031086070476F
:1014D00010B502460020204B186820F0030010438E
:1014E00018601E4B1B6843F004031C4C2360012949
:1014F00001D130BF00E020BF184B1B6823F004036C
:10150000164C236010BD1448006840F004001249D6
:1015100008600846006840F0020008600F48006854
:1015200040F004000D49086000BF00BF30BF7047A5
:1015300001460020084A52680A400AB1012000E032
:10154000002070470449096841EA8001024A11609D
:101550007047000000000E420070004010ED00E0F7
:10156000DF48006840F00100DD4908600846406837
:10157000DC490840DA49486008460068DA49084012
:10158000D74908600846006820F4802008600846B3
:10159000406820F4FE0048604FF41F0088607047E8
:1015A000CF49096821F48031CD4A1160114609689C
:1015B00021F480211160B0F5803F03D0B0F5802F79
:1015C0000ED106E0C649096841F48031C44A116071
:1015D00007E0C349096841F4A021C14A116000E055
:1015E00000BF00BF704710B5014600220023002055
:1015F0004A11012A02D1BA4C236806E0022A02D11C
:10160000B74C236A01E0B64C636A01F01F02012463
:1016100094401C400CB1012000E0002010BD38B502
:10162000002000900024002500BF3120FFF7DBFFE1
:1016300005460098401C00900098B0F5A06F01D0BE
:10164000002DF2D03120FFF7CEFF08B1012400E0D9
:101650000024204638BD01460020A14A106820F031
:10166000F80040EAC10010607047A0490860704768
:10167000024600209A4B586820F47C1042EA01038D
:101680001843974B58607047984908667047014661
:101690000020934A506820F00300084350607047D0
:1016A0008F48406800F00C007047014600208C4ACB
:1016B000506820F0F0000843506070470146002059
:1016C000874A506820F4E060084350607047014644
:1016D0000020834A506820F4605040EAC100506006
:1016E000704729B17E4A527A02437D4B5A7204E018
:1016F0007B4A527A82437A4B5A7270477B49D8317F
:101700000860704701460020754A506820F4404048
:101710000843506070470021714A20321170704AAE
:1017200082F82010012802D004280AD104E0012107
:101730006B4A2032117005E00521694A2032117090
:1017400000E000BF00BF7047694908607047644906
:10175000096A0143624A1162704765494439086069
:10176000704730B500210022002400235C4D6D68D5
:1017700005F00C0121B1042905D0082923D105E089
:101780005C4D056022E05B4D05601FE0544D6D68C7
:1017900005F47012524D6D6805F48034022505EB96
:1017A00092421CB9544D554305600BE04C4D6D6899
:1017B00005F400351DB1504D5543056002E04D4D17
:1017C0005543056002E04B4D056000BF00BF444D2E
:1017D0006D6805F0F0010909484D6B5C0568DD4056
:1017E00045603F4D6D6805F4E061090A434D6B5C4F
:1017F0004568DD4085603A4D6D6805F46051C90A61
:101800003E4D6B5C4568DD40C560354D6D6805F447
:101810004041890B3A4D6B5CC568B5FBF3F505613A
:1018200030BD29B12E4A526902432D4B5A6104E062
:101830002B4A526982432A4B5A61704729B1284A80
:1018400092690243264B9A6104E0254A92698243D9
:10185000234B9A61704729B1214AD2690243204B38
:10186000DA6104E01E4AD26982431D4BDA61704797
:1018700029B11B4AD2680243194BDA6004E0184AC6
:10188000D2688243164BDA60704729B1144A126954
:101890000243134B1A6104E0114A12698243104B50
:1018A0001A61704712494039086070470F49C8648F
:1018B00070470B49C87170470948406A40F0807012
:1018C00007494862704701460020054A92680A406D
:1018D0000AB1012000E0002070470149887270477A
:1018E000001002400000FFF8FFFFF6FE0000424239
:1018F0008004424200127A0000093D004C000020A2
:101900005C00002029B1504A128802434E4B1A80D5
:1019100004E04D4A128882434B4B1A8070474A4874
:10192000001D008840F010004749091D08807047DD
:101930004548001D00884FF6EF7108404249091DD7
:1019400008807047002140481C300188001F008833
:1019500041EA0040704700B50246FFF7E0FF100C77
:10196000394918310880091D0A80FFF7E1FF00BDE1
:1019700000B50246FFF7D3FFC2F3034032490831F6
:101980000880091D0A80FFF7D3FF00BD00B502469D
:10199000FFF7C5FF100C2C4920310880091D0A8073
:1019A000FFF7C6FF00BD002027491031098809074D
:1019B000080B2549143109880843704700BF2248A5
:1019C000001D008800F020000028F8D070471E4855
:1019D000001D00884FF6F77108401B49091D08805B
:1019E00000BF1948001D008800F008000028F8D04A
:1019F000704701460020144A121D12880A400AB19D
:101A0000012000E0002070470F49091D098881432B
:101A10000D4A121D11807047014600200A4A121D0E
:101A200012880A40D0B2084A12880A4012B108B19E
:101A3000012000E0002070470349091D0988814307
:101A4000014A121D118070470028004010B504465D
:101A5000FE48844208D10121C014FFF709FF00218C
:101A6000E014FFF705FFC4E0B4F1804F08D1012175
:101A70000846FFF70AFF00210120FFF706FFB8E044
:101A8000F348844208D101210220FFF7FEFE002125
:101A90000220FFF7FAFEACE0EE48844208D10121B3
:101AA0000420FFF7F2FE00210420FFF7EEFEA0E085
:101AB000E948844208D101210820FFF7E6FE002111
:101AC0000820FFF7E2FE94E0E448844208D10121B7
:101AD0001020FFF7DAFE00211020FFF7D6FE88E085
:101AE000DF48844208D101212020FFF7CEFE0021EB
:101AF0002020FFF7CAFE7CE0DA48844208D10121A9
:101B00004014FFF7B5FE00216014FFF7B1FE70E04E
:101B1000D548844209D10121C804FFF7A9FE00215C
:101B20004FF40020FFF7A4FE63E0D048844209D1BF
:101B300001210805FFF79CFE00214FF48010FFF7FC
:101B400097FE56E0CA48844209D101214805FFF7B3
:101B50008FFE00214FF40010FFF78AFE49E0C548D0
:101B6000844208D101214020FFF78FFE0021402050
:101B7000FFF78BFE3DE0C048844208D10121802060
:101B8000FFF783FE00218020FFF77FFE31E0BB4896
:101B9000844208D101218015FFF777FE0021A015AE
:101BA000FFF773FE25E0B648844209D101210804FD
:101BB000FFF75EFE00214FF48030FFF759FE18E07A
:101BC000B048844209D101214804FFF751FE0021A9
:101BD0004FF40030FFF74CFE0BE0AB48844208D1D5
:101BE00001218804FFF744FE00214FF48020FFF715
:101BF0003FFE10BD00220288944B98420ED0994BB4
:101C000098420BD0B0F1804F08D0914B984205D04C
:101C1000904B984202D0904B984204D14FF68F736C
:101C20001A404B881A438D4B984207D08C4B9842F0
:101C300004D04FF6FF431A40CB881A4302808B88AA
:101C400083850B880385814B98420BD0854B984246
:101C500008D08B4B984205D08A4B984202D08A4BD1
:101C6000984201D10B7A038601238382704770B5B5
:101C7000002400220023058C4FF6FE7635400584B3
:101C8000028C8388048B4FF68F752C40B51E2C4038
:101C90000D882C43751E2A400D892A434D882A43FE
:101CA0006A4DA8420BD06F4DA84208D0744DA8428F
:101CB00005D0744DA84202D0734DA84213D14FF6FF
:101CC000F7752A404D892A434FF6FB752A408D88C7
:101CD0002A434FF6FF652B404FF6FF552B408D8969
:101CE0002B43CD892B4383800483CD888586028452
:101CF00070BD70B5002400220023058C4FF6EF76EE
:101D000035400584028C8388048B48F6FF752C408F
:101D10004FF6FF452C400D884FF6FF7606EA052565
:101D20002C434FF6DF752A400D8906EA05152A4334
:101D30004D8806EA05152A43444DA84202D0494D74
:101D4000A8421DD14FF67F752A404D894FF6FF7688
:101D500006EA05152A434FF6BF752A408D8806EA24
:101D600005152A434FF6FF352B404FF2FF752B40E8
:101D70008D8906EA85052B43CD8906EA85052B4327
:101D800083800483CD880587028470BD70B50024EC
:101D900000220023058C4FF6FF6635400584028C37
:101DA0008388848B4FF68F752C404FF6FC752C4042
:101DB0000D882C434FF6FF552A400D894FF6FF76CC
:101DC00006EA05252A434D8806EA05252A431F4DC4
:101DD000A84202D0234DA8421DD14FF2FF752A40E0
:101DE0004D894FF6FF7606EA05252A434FF6FF3563
:101DF0002A408D8806EA05252A434EF6FF752B40BA
:101E00004DF6FF752B408D8906EA05152B43CD89CC
:101E100006EA05152B4383808483CD888587028459
:101E200070BD70B5002200230024058C4EF6FF76AD
:101E300035400584038C8488828B48F6FF752A40E0
:101E40004FF6FF452A400D8820E00000002C01409D
:101E50000004004000080040000C0040001000405A
:101E60000014004000340140004C0140005001408B
:101E70000054014000180040001C004000200040B9
:101E80000040014000440140004801404FF6FF7609
:101E900006EA05252A434DF6FF752B400D8906EA13
:101EA00005352B434D8806EA05352B43FA4DA842EC
:101EB00002D0FA4DA84208D14BF6FF752C408D890F
:101EC0004FF6FF7606EA85152C4384808283CD8801
:101ED000A0F84050038470BD828B4FF2FF331A404C
:101EE0008283828B4FF6FF7303EA01231A438283B6
:101EF0007047F0B50C461546002200210026078CDD
:101F00004EF6FF7C07EA0C070784828B018C4FF6A4
:101F1000FF7707EA043640F6FF473A404FF6FF776F
:101F200007EA05273A434FF6FF7707EA03373A43B4
:101F3000D94FB8420ED0D94FB8420BD0B0F1804F34
:101F400008D0D74FB84205D0D64FB84202D0D64FAE
:101F5000B84206D14DF6FF77394046F480573943F1
:101F600005E047F6FF57394044F4805739438283F0
:101F70000184F0BD828B4FF6F3731A408283828B0B
:101F80000A4382837047F0B50C46154600220021B3
:101F90000026078C4FF6FF6C07EA0C070784828B3C
:101FA000018C4FF6FF7707EA04264FF60C773A408C
:101FB0004FF6FF7707EA03172F433A43B64FB8426D
:101FC0000ED0B64FB8420BD0B0F1804F08D0B44F0E
:101FD000B84205D0B34FB84202D0B34FB84206D191
:101FE0004FF6FF57394046F48077394305E04FF20A
:101FF000FF57394044F48077394382830184F0BD30
:10200000028B4FF2FF331A400283028B4FF6FF73AD
:1020100003EA01231A4302837047F0B50C461546C4
:10202000002200210026078C4FF6EF7C07EA0C0700
:102030000784028B018C4FF6FF7707EA041640F6FF
:10204000FF473A404FF6FF7707EA03373A434FF628
:10205000FF7707EA05273A438F4FB8420ED08F4FDC
:10206000B8420BD0B0F1804F08D08D4FB84205D0A8
:102070008C4FB84202D08C4FB84206D14FF6DF7772
:10208000394046F01007394305E04FF65F77394095
:1020900044F01007394302830184F0BD028B4FF6F0
:1020A000F3731A400283028B0A4302837047F0B530
:1020B0000C46154600220021068C4FF6FE773E4066
:1020C0000684028B018C4FF60C7632407E1C06EAA9
:1020D00003162E433243704EB0420ED06F4EB042C4
:1020E0000BD0B0F1804F08D06D4EB04205D06D4E90
:1020F000B04202D06C4EB04206D14FF6FD76314070
:1021000044F00106314305E04FF6F576314044F0E6
:102110000106314302830184F0BD70B505460C46CB
:102120005D4885420ED05D4885420BD0B5F1804FA9
:1021300008D05B48854205D05A48854202D05A48AB
:10214000854200D100E000BF208850B92389A288D1
:1021500061882846FFF7ABFFE1882846FFF79EFF1E
:1021600025E0208804280AD12389A288618828468E
:10217000FFF753FFE1882846FFF742FF17E020886A
:1021800008280AD12389A28861882846FFF7FBFE28
:10219000E1882846FFF7EEFE09E02389A2886188DE
:1021A0002846FFF7A6FEE1882846FFF795FE70BD9A
:1021B0002DE9F04105460C4600260127608808B944
:1021C000022600E00026A088012801D1022700E0B5
:1021D00001272088A0B92389A28861882846FFF7B3
:1021E00066FFE1882846FFF759FF23893A463146C2
:1021F0002846FFF712FFE1882846FFF701FF13E0AA
:102200002389A28861882846FFF707FFE1882846CE
:10221000FFF7F6FE23893A4631462846FFF747FF87
:10222000E1882846FFF73AFFBDE8F0810A884B882D
:102230001A438B881A43CB881A430B891A434B895C
:102240001A438B891A43A0F8442070474FF6FF7158
:10225000818000210180C18041800172704700218E
:10226000018041808180C180018141818181C18162
:102270007047002101804180012181800021C180BF
:10228000018170470021018041808180C1800181EE
:102290004181818170470000002C014000340140E1
:1022A0000004004000080040000C004021B10288FA
:1022B00042F00102028004E002884FF6FE731A40E9
:1022C0000280704731B1B0F8442042F40042A0F8D7
:1022D000442005E0B0F84420C2F30E02A0F84420E8
:1022E00070471AB183890B43838102E083898B4352
:1022F000838170478182704741EA0203A0F8483029
:1023000070471AB183890B43838102E083898B4331
:102310008381704701894FF6F8721140018170473F
:102320000A46002101894FF68F731940114301813C
:10233000704730B504460D4629462046FFF7F0FFAA
:10234000208940F00700208130BD2DE9F04104468E
:102350000D4616461F46602D06D13B4601223146EA
:102360002046FFF75AFE05E03B4601223146204653
:10237000FFF79DFE29462046FFF7D2FF208940F057
:1023800007002081BDE8F08130B50C4600210189AD
:10239000C9B24FF6FF7505EA0325154325432943C6
:1023A000018130BD2DE9F04105460E46174698469D
:1023B000002443463A4631462846FFF7E5FF2C897C
:1023C0004FF6F870044044F007044FF68F70044055
:1023D00044F070042C81BDE8F081F0B504460D4650
:1023E00016461F463B46324629462046FFF7CCFF9D
:1023F000208940F480402081F0BD018582827047B1
:102400000A46002101884FF68F731940114301805D
:102410007047F0B50C4615461E46002100220023E9
:102420000189028B038C4FF6F877394021434FF630
:10243000FC473A4040F201173A434FF6DD773B4004
:102440004FF6FF7707EA06172F433B4301810283CC
:102450000384F0BD0A460021018B4FF68F731940AB
:102460001143018370470A460021018B48F6FF7330
:1024700019404FF6FF7303EA0223194301837047A3
:102480000A460021818B4FF68F73194011438183D7
:1024900070470A460021818B48F6FF7319404FF6BA
:1024A000FF7303EA022319438183704721B1028835
:1024B00042F08002028004E002884FF67F731A40E7
:1024C0000280704721B1828842F00402828004E0D9
:1024D00082884FF6FB731A408280704721B1828850
:1024E00042F00802828004E082884FF6F7731A40B7
:1024F0008280704721B1828842F00102828004E02C
:1025000082884FF6FE731A40828070470A46002187
:10251000018B4FF6F77319401143018370470A4648
:102520000021018B4FF2FF7319404FF6FF7303EA4E
:1025300002231943018370470A460021818B4FF61D
:10254000F77319401143818370470A460021818B3C
:102550004FF2FF7319404FF6FF7303EA022319434A
:10256000818370470A460021018B4FF6FB731940A7
:102570001143018370470A460021018B4FF6FF3358
:1025800019404FF6FF7303EA022319430183704792
:102590000A460021818B4FF6FB731940114381835A
:1025A00070470A460021818B4FF6FF3319404FF6E2
:1025B000FF7303EA02231943818370470A4600210F
:1025C000018B4FF67F7319401143018370470A4610
:1025D0000021018BC1F30E014FF6FF7303EA0223C2
:1025E0001943018370470A460021818B4FF67F73A0
:1025F00019401143818370470A460021818BC1F342
:102600000E014FF6FF7303EA0223194381837047DB
:102610000A460021018C4FF6FD73194011430184D5
:1026200070470A460021018C4FF6F7731940114399
:10263000018470470A460021018C4FF6DF73194070
:102640004FF6FF7303EA02131943018470470A46E9
:102650000021018C4FF67F7319404FF6FF7303EA98
:1026600002131943018470470A460021018C4FF67A
:10267000FF5319404FF6FF7303EA02231943018405
:1026800070470A460021018C4FF2FF7319404FF644
:10269000FF7303EA02231943018470470A460021AD
:1026A000018C4DF6FF7319404FF6FF7303EA0233B6
:1026B00019430184704730B5002301248C40A3B234
:1026C000048C9C430484048C02FA01F5ADB22C43C3
:1026D000048430BD30B5002304248C40A3B2048CA4
:1026E0009C430484048C02FA01F5ADB22C430484AB
:1026F00030BD70B50346002000241846183001256F
:102700008D40ACB21D8CA5431D8409B1082909D1A7
:1027100000EB6100056825F070050560056815434C
:1027200005600EE00D1FC5F34E052844056825F42D
:10273000E045056005684FF6FF7606EA0226354358
:10274000056070BD21B1028842F00202028004E0FF
:1027500002884FF6FD731A400280704721B102884B
:1027600042F00402028004E002884FF6FB731A4034
:102770000280704721B1828842F08002828004E0AA
:1027800082884FF67F731A408280704702884FF626
:10279000F7731A40028002880A43028070478288D9
:1027A0004FF68F731A40828082880A438280704776
:1027B00002894FF6F8731A40028102890A430281A6
:1027C000704702894FF67F731A40028102890A43DB
:1027D0000281704781847047818570478186704788
:1027E0000187704781877047A0F8401070470288C2
:1027F0004FF6FF431A40028002880A430280704766
:102800000146888E70470146088F70470146888FC1
:1028100070470146B1F8400070470146888C704708
:102820000146088D704702460020138A0B400BB109
:10283000012000E000207047CA430282704730B593
:102840000246002000230024158A05EA0103958929
:1028500005EA010413B10CB1012000E0002030BDF5
:10286000CA4302827047000010B50446FB48844208
:1028700009D101218803FEF7FBFF00214FF48040BE
:10288000FEF7F6FF32E0F648844209D10121480400
:10289000FEF7FBFF00214FF40030FEF7F6FF25E0C6
:1028A000F048844209D101218804FEF7EEFF00219F
:1028B0004FF48020FEF7E9FF18E0EB48844209D18D
:1028C0000121C804FEF7E1FF00214FF40020FEF7CC
:1028D000DCFF0BE0E548844208D101210805FEF742
:1028E000D4FF00214FF48010FEF7CFFF10BD2DE97B
:1028F000F04786B005460E460024A24600BFA1461A
:102900000027B08900B100BF2F462C8A4CF6FF701B
:102910000440F08804432C82AC894EF6F310044046
:10292000B08831890843718908430443AC81AC8A7B
:102930004FF6FF400440B0890443AC8201A8FEF783
:1029400010FFC648874202D1DDF810A001E0DDF893
:102950000CA0A88900F4004040B10AEBCA0000EBCB
:102960000A1031684900B0FBF1F807E00AEBCA0031
:1029700000EB0A1031688900B0FBF1F86420B8FB65
:10298000F0F004012009642101FB1089A88900F4FA
:10299000004040B1322000EBC900B0FBF1F000F084
:1029A0000700044308E0322000EB09106421B0FB6B
:1029B000F1F000F00F0004432C8106B0BDE8F08771
:1029C0004FF41651016000218180C18001810C21EA
:1029D000418100218181704710B502460020108A94
:1029E0004FF2FF0318400B884C8823438C88234305
:1029F000CC8823431843108210BD00210180418000
:102A00008180C180704721B1828942F40052828165
:102A100004E082894DF6FF731A4082817047F0B559
:102A20000346002400260025002040F66A17B9421C
:102A300000D100BF1846C1F3421401F01F06012760
:102A400007FA06F5012C01D10C3004E0022C01D16B
:102A5000103000E014301AB107682F43076002E01D
:102A60000768AF430760F0BD1AB1838A0B438382C6
:102A700002E0838A8B4383827047028A4FF6F073A9
:102A80001A400282028A0A430282704782894FF208
:102A9000FF731A40828182890A438281704721B183
:102AA000828942F00202828104E082894FF6FD733E
:102AB0001A4082817047028A4FF6DF731A40028201
:102AC000028A0A430282704721B1028A42F480429C
:102AD000028204E0028A4BF6FF731A4002827047BA
:102AE000C1F308028280704701468888C0F308005D
:102AF0007047818941F0010181817047028BD2B218
:102B00000283028B42EA012202837047028B02F4A5
:102B10007F420283028B0A430283704721B1828A7B
:102B200042F02002828204E0828A4FF6DF731A406C
:102B30008282704721B1828A42F01002828204E0D0
:102B4000828A4FF6EF731A408282704721B1828ADF
:102B500042F00802828204E0828A4FF6F7731A403C
:102B60008282704721B1828942F40042828103E06F
:102B70008289C2F30E028281704721B1828A42F4B7
:102B80000062828204E0828A4FF2FF731A408282DE
:102B90007047828A4FF6FB731A408282828A0A4308
:102BA0008282704721B1828A42F00202828204E06E
:102BB000828A4FF6FD731A408282704702460020D7
:102BC000B1F5007F00D100BF13880B400BB101208D
:102BD00000E00020704701F40072B2F5007F00D1E0
:102BE00000BFCA430280704770B50246002400232C
:102BF0000025002040F66A16B14200D100BFC1F3A3
:102C0000421501F01F03012606FA03F3012D02D13C
:102C10009689334006E0022D02D1168A334001E046
:102C2000968A33400C12012606FA04F416883440C2
:102C300013B10CB1012000E0002070BD10B50022DE
:102C4000002340F66A14A14200D100BF0A120124F9
:102C50009440A3B2DC43048010BD00000038014062
:102C60000044004000480040004C0040005000403C
:102C700010B56FF00400FDF700FF2E4800682E49E4
:102C8000B0FBF1F02D4908700846007800EB4001D8
:102C9000C1EBC0104FF6FF7101EAC000284908805F
:102CA00010BD0146254A12784A434FF0E0235A618D
:102CB00000229A611A46126942F001021A6100BFAD
:102CC0004FF0E022106900F001021AB100F48032E6
:102CD000002AF5D04FF0E022126922F001024FF0F5
:102CE000E0231A6100229A6170470146144A128853
:102CF0004A434FF0E0235A6100229A611A46126952
:102D000042F001021A6100BF4FF0E022106900F0AA
:102D100001021AB100F48032002AF5D04FF0E0220F
:102D2000126922F001024FF0E0231A6100229A6139
:102D3000704700003800002000127A006000002078
:102D400062000020014600BF704700BF494A128858
:102D500002F04002002AF9D0C2B2464B1B1D1A8075
:102D6000704710B586B00446012144F20400FEF716
:102D700065FD4FF40070ADF8140003208DF81600C7
:102D800018208DF8170005A93B48FEF735FA4FF4D7
:102D90008060ADF8140004208DF8170005A93648AE
:102DA000FEF72AFA25208DF8000003208DF8010097
:102DB0008DF8020001208DF803006846FDF713FE30
:102DC00001940020ADF80800ADF80A00ADF80C0041
:102DD000ADF810000C20ADF80E0001A92548FFF752
:102DE00086FD012240F225512248FFF718FE0121FD
:102DF0002048FFF708FE06B010BD10B540F225517F
:102E00001C48FFF7F1FE10B31A48FFF76DFEC4B27D
:102E10001A48008800F40040C8B91848008800F437
:102E2000804060B10A2C03D000201449088020E0C3
:102E30001248008840F400401049088019E00D2C29
:102E400006D10E48008840F480400C49088010E00C
:102E50000A480088C0F30D0009490C54074800884F
:102E6000401C0649088008460088C72801DD00206C
:102E7000088010BD003801400008014068000020B3
:102E80002A01002070B50546FF24F94806681BE0BA
:102E900004F091F904462A2C01D1012070BD232CA5
:102EA00001D10020FAE7232C0ED101231A46092173
:102EB000022005F0F5FA4FF49670FFF716FFEC4884
:102EC0000668072D00D000BFE9480068801BB0F5F8
:102ED000FA7FDDD30220E1E700B587B0E5A003C8A3
:102EE000CDE90501E5A000680490E5A103C9CDE99D
:102EF0000201E5480078002835D108200123E3A22B
:102F000005210090002002F024F912200521012360
:102F100005AACDE90010142002F019FA08200123B7
:102F2000DBA219210090002002F013F912200421E5
:102F3000012304AACDE900101921142002F007FA98
:102F400008200123D3A22D210090002002F001F9D6
:102F500012200621012302AACDE900102D21142000
:102F600002F0F5F933E0C848007801282FD1082095
:102F70000123C6A205210090002002F0EAF80820F3
:102F80000123C5A205210090102002F0E2F80820DC
:102F90000123BFA219210090002002F0DAF80820D6
:102FA0000123C1A219210090102002F0D2F80820BC
:102FB0000123B8A22D210090002002F0CAF80820B9
:102FC0000123BDA22D210090102002F0C2F807B00D
:102FD00000BD1FB5BCA000680390BCA000680290B3
:102FE000A948007810BB08200123B9A20521009050
:102FF000002002F0AEF814200421012303AACDE939
:103000000010052102F0A3F908200123B1A2192123
:103010000090002002F09DF814200421012302AA50
:10302000CDE90010192102F092F923E096480078CA
:1030300001281FD108200123A5A20521009000200E
:1030400002F087F808200123A3A205210090102098
:1030500002F07FF8082001239EA219210090002091
:1030600002F077F8082001239FA219210090102078
:1030700002F06FF81FBD1FB59FA0006803909FA0CE
:10308000006802908048007810BB082001237FA2CE
:1030900005210090002002F05CF814200421012397
:1030A00003AACDE90010052102F051F908200123FF
:1030B00077A219210090002002F04BF8142004217F
:1030C000012302AACDE90010192102F040F923E002
:1030D0006D48007801281FD1082001236BA205212B
:1030E0000090002002F035F80820012384A2052179
:1030F0000090102002F02DF80820012364A219216D
:103100000090002002F025F8082001237FA2192159
:103110000090102002F01DF81FBD00B585B07EA004
:10312000006804907DA0006803907DA00068029074
:1031300055480078002833D10820012353A20521E7
:103140000090002002F005F814200421012304AAB5
:10315000CDE90010052102F0FAF8082001234CA265
:1031600019210090002001F0F4FF14200421012314
:1031700003AACDE90010192102F0E9F80820012383
:1031800044A22D210090002001F0E3FF142004212F
:10319000012302AACDE900102D2102F0D8F833E076
:1031A0003948007801282FD10820012337A20521B2
:1031B0000090002001F0CDFF0820012359A2052135
:1031C0000090102001F0C5FF0820012330A2192132
:1031D0000090002001F0BDFF0820012354A2192116
:1031E0000090102001F0B5FF0820012328A22D2116
:1031F0000090002001F0ADFF082001234FA22D21F7
:103200000090102001F0A5FF05B000BD00B585B00D
:103210004DA103C9CDE903014DA0006802901A48F1
:10322000007820BB0820012318A20521009000206F
:1032300001F08FFF12200621012303AACDE900101F
:103240000521102002F083F80820012310A2192183
:103250000090002001F07DFF12200421012302AA2A
:10326000CDE900101921102002F071F899E071E009
:10327000280000200B0C0D1819000000222318193B
:103280005F602223181900001C000020312E00006E
:10329000322E0000332E000041646D696E2073658C
:1032A0007474696E670000005573657220736574ED
:1032B00074696E670000000052656D6F746520735D
:1032C000657474696E6700001A1B181914151617B7
:1032D000342E0000352E000053797374656D207311
:1032E000657474696E6700005265636F7264207163
:1032F00075657279000000000B0C10110B0C090AA7
:1033000041646D696E2046500000000041646D69A3
:103310006E2050574400000010111819090A18199E
:103320005B49181946502073657474696E67000014
:103330005057442073657474696E67004943207365
:10334000657474696E6700006162222318190000B9
:103350005C5D1819F9480078012822D10820012362
:10336000AFF2D80205210090002001F0F2FE082003
:103370000123AFF2BC0205210090102001F0E9FE0C
:1033800008200123AFF2F80219210090002001F07B
:10339000E0FE08200123EAA219210090102001F08C
:1033A000D8FE05B000BD00B585B0E9A00068049066
:1033B000E8A000680390E8A000680290DF48007869
:1033C000002836D108200123AFF2401205210090D9
:1033D000002001F0BEFE14200421012304AACDE93F
:1033E0000010052101F0B3FF08200123AFF26012A5
:1033F00019210090002001F0ACFE142004210123CB
:1034000003AACDE90010192101F0A1FF0820012332
:10341000AFF280122D210090002001F09AFE1420BE
:103420000421012302AACDE900102D2101F08FFF14
:1034300036E0C2480078012832D108200123AFF2DB
:10344000B41205210090002001F083FE0820012322
:10345000C2A205210090102001F07BFE082001236C
:10346000AFF2D41219210090002001F072FE082062
:103470000123BEA219210090102001F06AFE08204D
:103480000123AFF2F0122D210090002001F061FE27
:1034900008200123B9A22D210090102001F059FE2F
:1034A00005B000BD00B585B0B7A000680490B7A016
:1034B00000680390B6A000680290A0480078002839
:1034C00035D108200123AFF2F81205210090002029
:1034D00001F03FFE14200421012304AACDE90010CD
:1034E000052101F034FF08200123AFF21822192131
:1034F0000090002001F02DFE14200421012303AAD6
:10350000CDE90010192101F022FF08200123A1A21A
:103510002D210090002001F01CFE14200421012325
:1035200002AACDE900102D2101F011FF35E08348FA
:103530000078012831D108200123AFF26C22052147
:103540000090002001F005FE0720012392A2052132
:103550000090102001F0FDFD08200123AFF28C2225
:1035600019210090002001F0F4FD072001238EA214
:1035700019210090102001F0ECFD0820012385A204
:103580002D210090002001F0E4FD072001238AA2F4
:103590002D210090102001F0DCFD05B000BD10B51C
:1035A00086B0044688A00068059088A00068049052
:1035B00087A00068039061480078002838D108206F
:1035C0000123AFF2383205210090002001F0C1FD47
:1035D00014200421012305AACDE90010052101F0E2
:1035E000B6FE08200123AFF25832192100900020C6
:1035F00001F0AFFD14200421012304AACDE900103D
:10360000192101F0A4FE012C4BD108200123AFF2B7
:103610007C322D210090002001F09BFD142004211C
:10362000012303AACDE900102D2101F090FE38E01E
:1036300042480078012834D108200123AFF2B43287
:1036400005210090002001F084FD0820012361A2E3
:1036500005210090102001F07CFD08200123AFF22D
:10366000D03219210090002001F073FD08200123C1
:103670005AA219210090102001F06BFD012C10D1ED
:1036800008200123AFF2F4322D210090002001F038
:1036900060FD0820012353A22D210090102001F08D
:1036A00058FD06B010BD10B586B0044650A00068A5
:1036B000059050A0006804904FA0006803901F4838
:1036C0000078002838D108200123AFF240420521BC
:1036D0000090002001F03DFD14200421012305AAE3
:1036E000CDE90010052101F032FE08200123AFF2E0
:1036F000604219210090002001F02BFD14200421CC
:10370000012304AACDE90010192101F020FE012CAB
:1037100011D108200123AFF284422D210090002016
:1037200001F017FD14200421012303AACDE90010A4
:103730002D2101F00CFE9AE060E000001C0000204A
:10374000574946492073657474696E67000000002C
:1037500018192E2F3B1D5758593B1D5554696D653F
:103760002073657474696E67000000004F70656EA9
:10377000696E67206D6574686F6400004E6F726DCE
:10378000616C206F70656E00436364654246474814
:103790003C3D3E3F362E0000566F6C756D652061D6
:1037A000646A7573740000004C616E6775616765CB
:1037B0002073656C65637400466163746F72792071
:1037C00072657365740000002425101126271011FE
:1037D00028291011416464204650000044656C2083
:1037E00046500000456D707479204650000000007E
:1037F0002425090A2627090A2829090AFD480078EC
:10380000012834D108200123AFF280520521009015
:10381000002001F09EFC08200123F7A20521009062
:10382000102001F096FC08200123AFF29C521921D0
:103830000090002001F08DFC08200123F2A2192144
:103840000090102001F085FC012C10D108200123EC
:10385000AFF2C0522D210090002001F07AFC082028
:103860000123EDA22D210090102001F072FC06B082
:1038700010BD00B585B0ECA000680490EBA0006816
:103880000390EBA000680290DA480078002836D157
:1038900008200123AFF20C6205210090002001F006
:1038A00058FC14200421012304AACDE900100521AD
:1038B00001F04DFD08200123AFF22C621921009088
:1038C000002001F046FC14200421012303AACDE9C5
:1038D0000010192101F03BFD08200123AFF24C62DA
:1038E0002D210090002001F034FC1420042101233C
:1038F00002AACDE900102D2101F029FD36E0BD48D6
:103900000078012832D108200123AFF2806205211E
:103910000090002001F01DFC08200123C5A2052114
:103920000090102001F015FC08200123AFF2A062E6
:1039300019210090002001F00CFC08200123C0A2F6
:1039400019210090102001F004FC08200123AFF29F
:10395000BC622D210090002001F0FBFB0820012318
:10396000BAA22D210090102001F0F3FB05B000BD9C
:1039700000B585B0B9A000680490B9A000680390B4
:10398000B8A0006802909B480078002836D1082033
:103990000123AFF2087205210090002001F0D9FB4D
:1039A00014200421012304AACDE90010052101F00F
:1039B000CEFC08200123AFF22872192100900020CC
:1039C00001F0C7FB14200421012303AACDE9001054
:1039D000192101F0BCFC08200123AFF248722D210F
:1039E0000090002001F0B5FB14200421012302AA5D
:1039F000CDE900102D2101F0AAFC36E07D480078C9
:103A0000012832D108200123AFF2807205210090F5
:103A1000002001F09EFB0820012393A205210090C5
:103A2000102001F096FB08200123AFF29C721921AF
:103A30000090002001F08DFB082001238DA21921A8
:103A40000090102001F085FB08200123AFF2BC722A
:103A50002D210090002001F07CFB0820012388A28A
:103A60002D210090102001F074FB05B000BD1FB5A2
:103A700087A00068039087A0006802905D480078E6
:103A800020BB08200123AFF2FC720521009000202A
:103A900001F05FFB14200421012303AACDE90010EB
:103AA000052101F054FC08200123AFF61C02192166
:103AB0000090002001F04DFB14200421012302AAF4
:103AC000CDE90010192101F042FC25E049480078B9
:103AD000012821D108200123AFF6500205210090D2
:103AE000002001F036FB082001236BA20521009085
:103AF000102001F02EFB08200123AFF66C021921E3
:103B00000090002001F025FB0820012365A2192167
:103B10000090102001F01DFB1FBD00B587B065A00F
:103B20000068069064A103C9CDE9040164A000689F
:103B3000039030480078002836D108200123AFF6E2
:103B4000B40205210090002001F003FB14200321A2
:103B5000012306AACDE90010052101F0F8FB082099
:103B60000123AFF6D40219210090002001F0F1FAF0
:103B700014200521012304AACDE90010192101F028
:103B8000E6FB08200123AFF6F4022D21009000206F
:103B900001F0DFFA14200421012303AACDE900106B
:103BA0002D2101F0D4FBACE012480078012820D18F
:103BB00008200123AFF62C1205210090002001F00F
:103BC000C8FA082001233FA205210090102001F02F
:103BD000C0FA08200123AFF64812192100900020F6
:103BE00001F0B7FA082001233AA219210090102011
:103BF00074E086E01C0000204164642070617373EF
:103C0000776F72640000000044656C20706173730C
:103C1000776F726400000000456D707479207061E8
:103C20007373776F7264000024255B4926275B4914
:103C300028295B4941646420494320636172640020
:103C400044656C204943206361726400456D707463
:103C50007920494320636172640000002425616279
:103C600026276162282961624164642072656D6F54
:103C70007465000044656C2072656D6F74650000AA
:103C8000456D7074792072656D6F74650000000079
:103C900038395C5D3A3B5C5D436F6E6E65742057EE
:103CA00049464900446973636F6E6E6574205749D5
:103CB000464900003233340010115E090A0000004A
:103CC00010115E5B53696E676C652076657269667C
:103CD0007900000046502B505744000001F039FA9B
:103CE00008200123AFF654222D210090002001F07E
:103CF00030FA08200123F7A22D210090102001F0B6
:103D000028FA07B000BD1FB5F4A000680390F4A026
:103D100000680290F348007820BB08200123AFF62A
:103D2000942205210090002001F013FA14200121B3
:103D30000B4603AACDE90010052101F008FB08207D
:103D40000123AFF6B42219210090002001F001FAFE
:103D5000142001210B4602AACDE90010192101F01F
:103D6000F6FA25E0DF480078012821D10820012358
:103D7000AFF6E82205210090002001F0EAF90820C2
:103D80000123D9A205210090102001F0E2F90820BA
:103D90000123AFF6043219210090002001F0D9F977
:103DA00008200123D2A219210090102001F0D1F99E
:103DB0001FBD00B585B0D0A000680490CFA00068FA
:103DC0000390CFA000680290C6480078002836D142
:103DD00008200123AFF64C3205210090002001F0AD
:103DE000B8F914200221012304AACDE9001005210D
:103DF00001F0ADFA08200123AFF66C3219210090D2
:103E0000002001F0A6F914200221012303AACDE924
:103E10000010192101F09BFA08200123AFF68C3223
:103E20002D210090002001F094F91420022101239B
:103E300002AACDE900102D2101F089FA36E0A94847
:103E40000078012832D108200123AFF6C0320521C5
:103E50000090002001F07DF908200123A9A205218E
:103E60000090102001F075F908200123AFF6E03230
:103E700019210090002001F06CF908200123A4A270
:103E800019210090102001F064F908200123AFF6F9
:103E9000FC322D210090002001F05BF90820012365
:103EA0009EA22D210090102001F053F905B000BD15
:103EB0001FB59CA0006803909BA0006802908948F1
:103EC000007820BB08200123AFF640420521009076
:103ED000002001F03EF914200221012303AACDE9BC
:103EE0000010052101F033FA08200123AFF66042EB
:103EF00019210090002001F02CF914200221012347
:103F000002AACDE90010192101F021FA25E0754837
:103F10000078012821D108200123AFF69042052125
:103F20000090002001F015F9082001237FA205214F
:103F30000090102001F00DF908200123AFF6B042E7
:103F400019210090002001F004F90820012379A232
:103F500019210090102001F0FCF81FBD00B585B0BC
:103F600076A103C9CDE9030176A103C9CDE9010119
:103F70005C48007880B90720012303AA0021009043
:103F8000082001F0CAF90520012301AA10210090A0
:103F9000182001F0C2F912E05248007801280ED131
:103FA0000820012369A20021009001F0D2F8082026
:103FB00001236AA214210090002001F0CAF805B084
:103FC00000BD10B586B0044669A003C8CDE9040160
:103FD00069A103C9CDE9020142480078B0B9012CBA
:103FE00009D114200521012304AACDE900101020D5
:103FF00001F0ADF922E00CBB14200521012302AA37
:10400000CDE90010102001F0A2F917E03548007842
:10401000012813D1012C08D10820012358A2052121
:1040200000900A2001F095F808E03CB9082001232F
:1040300057A2052100900A2001F08BF806B010BDB0
:10404000F0B589B005460E4614461F4655A003C874
:10405000CDE9070155A103C9CDE9050155A00068C7
:10406000049055A00068039054A0006802901D4879
:10407000007800282BD145B90820012307AA052183
:104080000090002001F049F909E0012D07D1072037
:10409000012305AA05210090082001F03EF9AFB9DF
:1040A000012C08D10320012303AA1921009000202C
:1040B00001F033F98EE0022C0AD10320012304AA77
:1040C00019210090002001F028F983E082E095E0BA
:1040D00076E0000046502B49430000003B00000002
:1040E000530000001C0000204F70656E00000000AF
:1040F000436C6F7365000000684300006943000073
:104100006A4300004869676820706974636800004A
:104110004C6F772070697463680000004D7574659A
:104120000000000035370000363700004368696E34
:1041300065736500456E676C697368000607080B58
:104140000C0D1200090A131011000000506C65617B
:10415000736520656E7465722000000061646D698E
:104160006E204650206F72205057442000000000FF
:10417000060708090A0000000607081011000000E1
:10418000456E7465722070617373776F726420007E
:10419000456E7465722066696E6765727072696ECD
:1041A000742000000607080B0C0D0E0F06070822EE
:1041B000230E0F0013090A0013101100134A5B00AD
:1041C000032C07D10320012302AA1921009000200B
:1041D00001F0A3F808200123FCA21921009030204F
:1041E00000F0B7FFB6F57A7F61DA032001231922C8
:1041F00040210090304600F0CAFF58E0F4480078B3
:10420000012854D17DB908200123F2A20146009073
:1042100000F09FFF08200123F0A21C210090002045
:1042200000F097FF0FE0012D0DD108200123E9A236
:104230000146009000F08DFF08200123EAA21C2116
:10424000009000F086FFFFB9012C08D1082001235F
:10425000E7A201460090382000F07BFF14E0022C1A
:1042600008D108200123E4A201460090382000F084
:1042700070FF09E0032C07D108200123E0A20146CA
:104280000090382000F065FF08200123CFA21C21F8
:104290000090402000F05DFFB6F57A7F07DA03203A
:1042A00001231C2250210090304600F070FF09B01D
:1042B000F0BD7FB506460C461546D3A000680390B6
:1042C000D2A000680290D2A000680190C048007897
:1042D000002848D10420012303AA052100900020D2
:1042E00001F01BF808200123CAA2052100904020FC
:1042F00000F02FFF022001230522502100903046BC
:1043000000F045FF0420012302AA1921009000209B
:1043100001F003F808200123C1A2192100904020D8
:1043200000F017FF0220012319225021009020469F
:1043300000F02DFF08200123BCA22D2100900020B9
:1043400000F007FF0220012301AA2D210090102078
:1043500000F0E3FF032001232D224821009028468E
:1043600000F015FF43E09A48007801283FD108206B
:104370000123B3A205210090002000F0EAFE0820EE
:104380000123A4A205210090402000F0E2FE0220BB
:104390000123052250210090304600F0F8FE08204D
:1043A0000123AAA219210090002000F0D2FE0820CB
:1043B00001239BA219210090402000F0CAFE022098
:1043C0000123192250210090204600F0E0FE082031
:1043D0000123A0A22D210090002000F0BAFE0220AF
:1043E00001232D2250210090284600F0D0FE7FBDF1
:1043F0007CB504460D469CA000680190002600F0A4
:10440000F4FD7348007848BB0320012301AA192159
:104410000090182000F081FF082001236BA21921D1
:104420000090482000F095FE012C01D1462606E0C0
:10443000022C01D1502602E0032C00D14926012391
:1044400032461921502000F034FE032001231922A6
:1044500058210090284600F09AFE33E05C4800782E
:1044600001282FD10820012380A20F2100902320B2
:1044700000F06FFE012C08D1082001237DA2282125
:104480000090302000F065FE14E0022C08D10820D6
:10449000012379A228210090302000F05AFE09E083
:1044A000032C07D10820012374A22821009030207A
:1044B00000F04FFE032001232822382100902846D7
:1044C00000F065FE00F048FD4FF44870FEF70DFC6B
:1044D00000F08BFD7CBD70B58AB005460C461646D3
:1044E00067A000680990AFF2783003C8CDE90701F2
:1044F000AFF27C3103C9CDE9050162A103C9CDE961
:10450000030162A000680290022C21D1304800789B
:1045100088B914200521012307AACDE90010102035
:1045200000F015FF0820012359A219210090502006
:1045300000F00FFECEE026480078012807D10820C1
:10454000012354A20A2100900F2000F002FEC1E0D6
:10455000012C21D11E48007888B91420052101239F
:1045600005AACDE90010102000F0F1FE082001237B
:104570004CA219210090502000F0EBFDAAE0144855
:104580000078012807D10820012347A20A210090C2
:104590000F2000F0DEFD9DE0032C14D10C480078C4
:1045A00090B914200321012309AACDE900100521A7
:1045B000242000F0CCFE082001233FA21921009006
:1045C000502000F0C6FD85E078E000003A000000D1
:1045D0001C000020456E74657200000061646D6906
:1045E0006E20494400000000757365722049440044
:1045F0004650206F72000000505744206F72000038
:104600004943206F72000000090A2223101122235F
:10461000222300003A2020203A20323800000000F7
:104620003A2020203A20393500000000494320205C
:1046300020203A20202020203A3230300000000094
:104640005057442075736572000000004650207575
:104650007365720049432063617264203A20202010
:104660003A313030000000004D26270044656C656B
:104670007465000046000000500000004900000082
:10468000064A49000B0C0D0E0F00000022230E0FEE
:104690003A500000456E7465722070617373776FD5
:1046A000726400003A460000456E746572204669E7
:1046B0006E676572000000003A490000FE4800780D
:1046C000012807D108200123FCA20A2100900F2015
:1046D00000F03FFDC5B9F848007840B90520012336
:1046E00003AA19210090002000F017FE28E0F248EC
:1046F0000078012824D108200123F4A21A21009077
:104700000F2000F026FD1BE0012D19D1EA480078AA
:1047100050B914200421012302AACDE90010192167
:10472000002000F014FE0BE0E3480078012807D1D8
:1047300008200123E8A21A2100900F2000F009FDB3
:1047400003200123192260210090304600F01FFD54
:104750000AB070BD1FB5E3A000680390E2A0006836
:104760000290D548007820BB08200123DFA2282131
:104770000090002000F0EDFC14200221012303AA88
:10478000CDE900102821102000F0E1FD08200123D0
:10479000D7A2282100904C2000F0DBFC142002213D
:1047A000012302AACDE9001028215C2000F0CFFDF2
:1047B00023E0C148007801281FD107200123CBA2A4
:1047C00028210090002000F0C4FC07200123C9A28A
:1047D00028210090082000F0BCFC07200123C4A27F
:1047E00028210090442000F0B4FC07200123C3A23C
:1047F000282100904C2000F0ACFC1FBD10B586B005
:104800000446C04800680590BE48283000680490FF
:10481000AFF6E43000680390AFF6B830006802905D
:10482000012C1BD1A448007850B914200421012385
:1048300005AACDE900100A211A2000F088FD63E0E6
:104840009D48007801285FD108200123AD4A143229
:104850000A210090232000F07CFC55E0022C1AD1A4
:104860009548007850B914200421012304AACDE909
:1048700000100A211A2000F06AFD45E08E480078F9
:10488000012841D1082001239FA20A2100901F2066
:1048900000F05FFC38E0032C1AD18748007850B94B
:1048A00014200421012303AACDE900100A211A20B3
:1048B00000F04DFD28E080480078012824D1082030
:1048C000012394A20A2100901F2000F042FC1BE06B
:1048D000042C19D17848007850B914200421012300
:1048E00002AACDE900100A211A2000F030FD0BE0E9
:1048F00071480078012807D10820012388A20A21E5
:104900000090102000F025FCFFF724FF06B010BD3A
:104910000EB587A103C9CDE901016748007840B908
:104920000620012301AA0A210090102000F0F5FCC6
:104930000AE061480078012806D1072001237EA201
:104940000A21009000F005FCFFF704FF0EBD0EB534
:104950007EA103C9CDE901015748007840B906207E
:10496000012301AA0A210090102000F0D6FC0BE0E0
:1049700051480078012807D10720012375A20A2198
:104980000090002000F0E5FBFFF7E4FE0EBD2DE9EE
:10499000FF4F83B00E4617469846DDF84490072433
:1049A0000F254FF0230A70A0006802906F208DF849
:1049B000040070208DF805006C48007A072821D289
:1049C000DFE800F004080C1014181C0077208DF8A4
:1049D000060017E071208DF8060013E072208DF8B4
:1049E00006000FE073208DF806000BE074208DF8B0
:1049F000060007E075208DF8060003E076208DF8AC
:104A0000060000BF00BF64211098B0FBF1F201FB6B
:104A1000120B0220EAB2E1B201230090584600F0E6
:104A2000B6FB0820E9B204F110020090D0B20123D5
:104A30004FA200F08EFB0220EAB2009004F11800B1
:104A4000C1B20123404600F0A2FB0820E9B204F104
:104A500028020090D0B2012345A200F07AFB022088
:104A6000EAB2009004F13000C1B20123384600F0F0
:104A70008EFB0220EAB2009004F14A00C1B2012389
:104A8000304600F084FB0820E9B204F15A0200909D
:104A9000D0B201230FA200F05CFB0220EAB200902A
:104AA00004F16200C1B20123039800F070FBB9F178
:104AB000000F6AD104205DE01C000020537769706C
:104AC00065204943206361726400000041646D69A0
:104AD0006E2049443A000000557365722049443AFB
:104AE000000000002A2B00002C2D00002A000000EE
:104AF0002300000063616E63656C0000636F6E6687
:104B000069726D00D0370008456D70747920505778
:104B100044000000456D7074792049430000000096
:104B2000456D7074792052656D6F746500000000EA
:104B30004F5051524E1900005265636F6E6669679F
:104B40007572652057494649000000003C3D3E3FD4
:104B500018190000466163746F7279206461746192
:104B600020726573657400006B6C6D6E2209002005
:104B70002D0000000AF0FF0104F111020090D0B2F4
:104B8000012302AA00F0C9FB0DE0B9F1010F0AD11F
:104B900003200AF0FF0104F119020090D0B20123B2
:104BA00001AA00F0BAFB07B0BDE8F08FF7B584B0FA
:104BB00006460F4693A00068039093A000680290F9
:104BC00092A00068019007242325022E1CD1904852
:104BD000007850B90420E9B204F118020090D0B274
:104BE000012301AA00F099FB64E0894800780128BC
:104BF00060D10720E9B204F118020090D0B201237D
:104C000084A200F0A6FA55E0CEB98148007840B9F8
:104C10000420E9B20090E0B2012303AA00F07DFB7A
:104C20000DE07B480078012809D10820E9B204F1A1
:104C300010020090D0B2012379A200F08AFA012E6E
:104C400019D17348007840B90420E9B20090E0B26D
:104C5000012302AA00F061FB0DE06D4800780128F5
:104C600009D10820E9B204F118020090D0B2012362
:104C70006DA200F06EFA0820E9B204F14002009043
:104C8000D0B20123AFF2B41200F063FA0820E9B207
:104C900004F150020090D0B2012306AA00F059FAA4
:104CA0000320EAB2009004F15800C1B20123384653
:104CB00000F06DFA07B0F0BD1FB55DA0006803906D
:104CC0005CA0006802905248007810BB08200123C5
:104CD00059A205210090002000F03BFA1420042185
:104CE000012303AACDE90010052100F030FB0820C4
:104CF000012352A219210090002000F02AFA14206A
:104D00000421012302AACDE90010192100F01FFBA4
:104D100023E03F48007801281FD10820012346A244
:104D200005210090002000F014FA0820012344A27D
:104D300005210090102000F00CFA082001233FA26A
:104D400019210090002000F004FA082001233FA25E
:104D500019210090102000F0FCF91FBD0EB5AFF234
:104D6000F810006802902A48007848B914200421FD
:104D7000012302AACDE90010192100F0E8FA0BE0A6
:104D800023480078012807D10820012331A21921E6
:104D90000090102000F0DDF90EBD00B585B031A106
:104DA00003C9CDE9030131A103C9CDE901011848C7
:104DB000007880B90620012303AA0021009010206A
:104DC00000F0ABFA0820012301AA10210090002076
:104DD00000F0A3FA13E00E48007801280FD1082054
:104DE0000123AFF698420021009000F0B2F90820AC
:104DF000012320A214210090002000F0AAF905B0A0
:104E000000BD00000B0C2223404122234B4C2223E7
:104E10001C00002054656D70205573657200000001
:104E200041646D696E0000005573657200000000FA
:104E30001C1D14151E1F2021312E0000322E0000D3
:104E4000446F6F72207265636F7264004D65737397
:104E50006167650057656C636F6D6520486F6D65B0
:104E6000000000000607082223120000090A1310A0
:104E700011135B49204650206F7220505744206F19
:104E800072204943206361726420000070B50446BB
:104E90008021FE48FCF75FFA4021FC48FCF75BFAF2
:104EA00000251BE04FF40071F848FCF754FA04F0B9
:104EB000800028B14FF48071F448FCF74AFA04E00E
:104EC0004FF48071F148FCF746FA6006040E4FF487
:104ED0000071EE48FCF73DFA681CC5B2082DE1DB15
:104EE0004021EA48FCF735FA8021E848FCF731FA1E
:104EF00070BD70B504468021E448FCF72AFA4021D1
:104F0000E248FCF728FA00251BE04FF40071DF4867
:104F1000FCF721FA04F0800028B14FF48071DB48DF
:104F2000FCF717FA04E04FF48071D848FCF713FA45
:104F30006006040E4FF40071D448FCF70AFA681CAE
:104F4000C5B2082DE1DB8021D048FCF702FA4021F0
:104F5000CE48FCF700FA70BD70B5002418E004F1EB
:104F6000B001C8B2FFF792FF0020FFF78FFF1020BB
:104F7000FFF78CFF002507E0C54901EBC501085D7F
:104F8000FFF7B7FF681CC5B2802DF5DB601CC4B20B
:104F9000082CE4DB70BD70B504460D4605F1B00188
:104FA000C8B2FFF773FF102141EA1410FFF76EFF3C
:104FB00004F00F0141F00100FFF768FF70BD10B56C
:104FC0008D20FFF763FF1420FFF760FFAF20FFF78E
:104FD0005DFF10BD10B58D20FFF758FF1020FFF7C3
:104FE00055FFAE20FFF752FF10BD70B500240CE056
:104FF000002506E00020A64901EBC5010855681C04
:10500000C5B2802DF6DB601CC4B2082CF0DBFFF7C4
:10501000A3FF70BDF0B5144600267F2801DC3F29B0
:1050200000DDF0BD0B46CF1701EB5777FF10C7F13E
:105030000707FAB2CF1701EB5777FF10A1EBC707AD
:10504000FDB2C5F107070123BB40DEB24CB1904B66
:1050500003EBC0039B5C33438D4F07EBC007BB548E
:1050600008E08B4B03EBC0039B5CB343884F07EB1B
:10507000C007BB5400BFD4E72DE9F04706460F46F2
:1050800090469946DDF820A034460CE03D4606E007
:10509000524629462046FFF7BDFF681CC5B24D4564
:1050A000F6DD601CC4B24445F0DDFFF755FFBDE8F6
:1050B000F0872DE9FF4F81460C4692461D46CDF8FC
:1050C00000902746A046AAF1200000010390714EEF
:1050D000039806444FF0000B36E016F8010B0190E0
:1050E0000020029028E0019800F0800028B12A46B4
:1050F00041460098FFF78EFF08E00DB9012000E05F
:105100000020024641460098FFF784FF01984006C0
:10511000000E019008F1010000F0FF08A8EB070065
:10512000102805D1B8460098401CC0B2009006E097
:105130000298401CC0B2029002980828D3DB00BF3E
:105140000BF1010000F0FF0BBBF1100FC5DBBDE858
:10515000FF8F2DE9F04705460E4614461F46DDF841
:105160002080204607F01CF9814609E014F8012B45
:105170003B4631462846FFF79CFF05EB0800C5B2C9
:105180005FEA0900A9F10109F0D1BDE8F0872DE936
:10519000F04304460D4617469846079E032E31D12C
:1051A0006420B4FBF0F00A21B0FBF1F201FB120025
:1051B00000F1300943464A4639462846FFF779FF51
:1051C0000A20B4FBF0F00A21B0FBF1F201FB12005F
:1051D00000F1300905F10801C8B243464A46394694
:1051E000FFF767FF0A20B4FBF0F100FB114000F16C
:1051F000300905F11001C8B243464A463946FFF767
:1052000058FF30E0022E1FD10A20B4FBF0F00A2133
:10521000B0FBF1F201FB120000F1300943464A46AF
:1052200039462846FFF745FF0A20B4FBF0F100FBA2
:10523000114000F1300905F10801C8B243464A4661
:105240003946FFF736FF0EE0012E0CD10A20B4FBE1
:10525000F0F100FB114000F1300943464A4639465F
:105260002846FFF726FFBDE8F0832DE9FF4F814672
:105270000C4692461D46CDF800902746A0464FEAC0
:105280004A100390044E0398064407E000100140C2
:10529000F201002030DE000820E400084FF0000B8F
:1052A00036E016F8010B01900020029028E00198EA
:1052B00000F0800028B12A4641460098FFF7AAFE78
:1052C00008E00DB9012000E00020024641460098A8
:1052D000FFF7A0FE01984006000E019008F10100C2
:1052E00000F0FF08A8EB0700102805D1B846009889
:1052F000401CC0B2009006E00298401CC0B2029070
:1053000002980828D3DB00BF0BF1010000F0FF0B6F
:10531000BBF1200FC5DBBDE8FF8F2DE9F04105464D
:105320000E4614461F46DDF8188009E014F8012BDC
:105330003B4631462846FFF798FF05F11000C5B2FD
:105340005FEA0800A8F10108F0D1BDE8F0812DE97D
:10535000F04305460E4614461F46DDE9079809E06E
:1053600014F8012B3B4631462846FFF77EFF05EB3C
:105370000800C5B25FEA0900A9F10109F0D1BDE852
:10538000F0832DE9F05F06460F4690461C46DDF897
:1053900028A04FF0000BE11704EB5171C910A4EBEA
:1053A000C10131B92046E11704EB5171C1F3C705C2
:1053B00006E02046E11704EB5171C910491CCDB23B
:1053C0003D4615E029463046FFF7E5FDB1460BE0C6
:1053D00059464A1C1FFA82FB1AF80100FFF789FDA3
:1053E00009F1010000F0FF09C145F1DB681CC5B2FD
:1053F000A542E7DBBDE8F09F08B501210420FCF7DA
:105400001DFA1020ADF800008DF8030003208DF880
:10541000020069468F48FBF7EFFE10218D48FBF72D
:1054200098FF01211020FCF709FA4FF47070ADF8D5
:10543000000010208DF8030003208DF8020069465B
:105440008548FBF7D9FE4FF470718348FBF781FF65
:1054500010218048FBF77FFFC820FDF746FC102194
:105460007C48FBF776FFAE20FFF710FDD520FFF755
:105470000DFD5020FFF70AFDA820FFF707FD3F2094
:10548000FFF704FDD320FFF701FD0020FFF7FEFC2E
:105490004020FFF7FBFC8D20FFF7F8FC1420FFF7FE
:1054A000F5FC2020FFF7F2FC0220FFF7EFFCA12023
:1054B000FFF7ECFCC020FFF7E9FCDA20FFF7E6FC81
:1054C0001220FFF7E3FC8120FFF7E0FCEF20FFF75D
:1054D000DDFCD920FFF7DAFCF120FFF7D7FCDB2059
:1054E000FFF7D4FC3020FFF7D1FCA420FFF7CEFC5F
:1054F000A620FFF7CBFCFFF778FDAF20FFF7C6FC37
:1055000008BD2DE9F0473F205449087077E0534823
:10551000007808F084FA80464FF06632504B08F06D
:1055200091FA064600224F4B08F08AFB044608F029
:1055300049FA00F0FF0A0122484801785046FFF777
:1055400069FD4648007808F06AFA80464FF06632F6
:10555000434B08F077FA06460022434B08F08AF9DD
:10556000044608F02FFA00F0FF0A01223B480178B8
:105570005046FFF74FFD39480078C0F140003B49E5
:1055800008700846007808F04AFA80464FF0663204
:10559000334B08F057FA06460022354B08F050FB13
:1055A000044608F00FFA00F0FF0A01222F480178A4
:1055B0005046FFF72FFD2D48007808F030FA80465E
:1055C0004FF06632264B08F03DFA06460022284B83
:1055D00008F050F9044608F0F5F900F0FF0A01223E
:1055E000224801785046FFF715FD0220FDF77DFBAC
:1055F000FFF7B2FC19480078401E18490870174898
:105600000078122883DA1E201449087018E0134924
:105610000978C1F17D01C8B201222F21FFF7FAFC00
:10562000012212210D480078FFF7F4FC0220FDF75B
:105630005CFBFFF791FC09480078401C07490870A3
:10564000064800785E28E2DD6420FDF74EFBBDE8E9
:10565000F087000000080140001001406A000020AF
:105660006666E63F00005B40000031406B000020B2
:105670000000504010B501216648FDF7E0F868B120
:105680006548008840F40040634908800121614872
:10569000FDF7E6F800215F48FCF708FE10BD7FB576
:1056A00005460C4601210420FCF7D5F8ADF804505E
:1056B000ADF800400020ADF80600ADF802006946E4
:1056C0005448FCF797FA012211465248FCF709FEAC
:1056D00001215048FCF7EAFD1E208DF80C00002047
:1056E0008DF80D0002208DF80E0001208DF80F00BE
:1056F00003A8FBF778F97FBD7FB505460C4601216D
:105700000220FCF7A8F8ADF80850ADF804400020DE
:10571000ADF80A00ADF8060001A94048FCF76AFAA6
:10572000012211463D48FCF7DCFD1D208DF80000EC
:1057300000208DF8010003208DF8020001208DF873
:1057400003006846FBF74FF901213448FCF7AEFD32
:105750007FBD10B501213148FDF771F8A0B10121DD
:105760002E48FDF77DF82E48007820B92D480068B6
:10577000401C2C4908602C480078012804D12B4893
:105780000088401C294908802848008841F270712F
:1057900088421CD100202549088025480088401CEB
:1057A0002349088023480088012804D12248008822
:1057B000401C2149088002F00FFE18B101201D494C
:1057C000088004E000201B4908801B490880184815
:1057D000008802280AD1002015490880042003F01F
:1057E0002DF90020154908700F49087012480088EB
:1057F0001E280ED101231A460821022002F050FE75
:105800004FF47A70FDF771FA00200B4908800949BE
:10581000088010BD00080040760000200004004011
:105820001800002028000020170000206C00002035
:105830006E00002074000020700000201100002085
:1058400010B540F225515848FDF7CEF9F8B1564849
:10585000FDF74AF9C4B25548008800F40040B0B9D9
:1058600052480088B0F5C87F12DA00215048FCF792
:10587000B1FF4E48008818B901214D48FCF716FDCC
:105880004A490888411C494A11804A490C5405E09C
:105890004648008840F400404449088010BD10B5D7
:1058A00086B0044601213020FBF7C8FF012108051E
:1058B000FBF7D1FF3C48FCF7D7FF4FF48050ADF821
:1058C000100003208DF8120018208DF8130004A991
:1058D0003948FBF791FC0420ADF8100003208DF847
:1058E000120048208DF8130004A93448FBF784FC0B
:1058F00000940020ADF80400ADF80600ADF80800F3
:10590000ADF80C000C20ADF80A0069462648FCF7FB
:10591000EEFF01212448FDF776F8012240F22551DF
:105920002148FDF77CF835208DF8140002208DF811
:10593000150003208DF8160001208DF8170005A82A
:10594000FBF751F841F61F416320FFF7A8FE002046
:105950001649088000211648FCF7A8FC06B010BDC7
:105960000FB438B505A800901548009A049906F0C0
:10597000F9FB00200090124806F012FD85B20024C9
:105980000DE000BF40210848FDF718F90028F9D0C4
:105990000B48015D0448FDF7A3F8601C84B2AC42DB
:1059A000EFDB38BC5DF814FB0050004076000020AF
:1059B00000080040F20500200010014000140140E2
:1059C0008207002008B501210420FBF737FF1020D3
:1059D000ADF8000028208DF8030003208DF80200A8
:1059E0006946FA48FBF708FC08BD00BFF84909887A
:1059F00001F040010029F9D0F5498880704710B5C1
:105A0000EF20FFF7F2FF0120FFF7EFFF10BD10B509
:105A1000F0490968080EFFF7E8FFEE480068C0F398
:105A20000740FFF7E2FFEB480088C0F30720FFF7CD
:105A3000DCFFE8490878FFF7D8FF10BD10B5044631
:105A40002046FFF7D2FF10BD10B50446C4F307206F
:105A5000FFF7CBFFE0B2FFF7C8FF10BD10B504465B
:105A60002046FFF7C2FF10BD10B504462012FFF715
:105A7000BCFFE0B2FFF7B9FF10BD7CB50546EF20D3
:105A80008DF8000001208DF80100D2480068000E5A
:105A90008DF80200CF480068000C8DF80300CD4857
:105AA0000088000A8DF80400CA4800788DF80500C7
:105AB00007208DF8060000208DF80700C6490880F1
:105AC00012E00120FDF711F9C348008800F40040FE
:105AD00050B10020C04908806946C04806F04EFC1D
